:0600000000308A00122806
:10000800FF00030883120313EA000408EB000A0840
:10001800EC007E08ED000A128A11B32EC03084006D
:100028000630FE000F30FF0023208000840A0408F9
:10003800F03A03192728FF0A0319FE0A18287E0830
:100048008A007F0882004030840052300A128A11E8
:100058003C200A128A1183177D3084007E300A12F0
:100068008A113C200A128A1183010A128A11442833
:1000780064008001840A04060319003404063D283C
:100088000330D2005208F200F0010314F00D0310FF
:10009800003003180130FB00FC010314FC0DF314BD
:1000A8007314F1010314F10D03100030031801302B
:1000B800F40007110310003003180130F700031093
:1000C800003003180130F600031000300318013027
:1000D800F80083160313FF3088000912031000305C
:1000E800031801308700031083120313003003182C
:1000F800013087000A128A15B6210A128A11831262
:1001080003130911891040300A128A1523210A1293
:100118008A11C03083120313E0008030E1000A1214
:100128008A1535210A128A118312031309118030A6
:100138000A128A1523210A128A1102308316031320
:100148008C004030831203138B004E309200F9303C
:100158008316031392000C3083120313D200520843
:10016800F9000310003003180130D00003100030EC
:1001780003180130D100FD110310003003180130BD
:10018800CD000310003003180130CC0003100030FC
:1001980003180130C50007118B130808D200520854
:1001A800FB0003290310003003180130FB0020294D
:1001B800FB010314FB0D20290230D2005208FB007A
:1001C80020290330D2005208FB0020290430D20035
:1001D8005208FB0020290530D2005208FB002029D4
:1001E8000630D2005208FB0020290730D2005208FE
:1001F800FB0020290830D2005208FB0020297B0888
:10020800003A0319D628013A0319DC28033A0319DE
:10021800E028063A0319E5280C3A0319EA28183A9F
:100228000319EF28303A0319F428603A0319F9281A
:10023800C03A0319FE282029CF08031D24291C2AA7
:100248000130CF020130D2005208D1073C305102B0
:10025800031C2F293029112A0310003003180130FC
:10026800D100CD08031D39296F2941087906031DDE
:100278003E293F296F290130D200D3015008520787
:10028800D40053080318530AD500400854065504EF
:10029800031D4F2950296F29FD195329552901306C
:1002A80056290030D2007D185A295C2901305D2971
:1002B80000305206031D612962296F29031000309E
:1002C80003180130F6004808D2005208F700071555
:1002D800F8010314F80DCC08031D7329AA29420854
:1002E8007906031D78297929AA290130D200D3017A
:1002F80050085207D40053080318530AD50044087D
:1003080054065504031D89298A29AA29FD198D290E
:100318008F29013090290030D200FD1894299629A0
:100328000130972900305206031D9B299C29AA29D0
:100338000310003003180130F6004608D2005208B6
:10034800F70007150230D2005208F800C508031D4F
:10035800AE29E52943087906031DB329B429E529FF
:100368000130D200D30150085207D40053080318B3
:10037800530AD5004E0854065504031DC429C5293F
:10038800E529FD19C829CA290130CB290030D20036
:100398007D19CF29D1290130D22900305206031DF9
:1003A800D629D729E5290310003003180130F600B3
:1003B8004A08D2005208F70007150330D200520845
:1003C800F800F808031DE929ED290130D200520888
:1003D800F6070130D2005208D0073C305002031C07
:1003E800F629F729112A0310003003180130D0002C
:1003F8000130D2005208F90779080C3A031D052A82
:10040800062A082A0830FD060D307902031C0D2A39
:100418000E2A112AF9010314F90DF208031D152AF1
:100428001B2A7208023A031D1A2A1B2A1C2AF314D3
:100438004E30D300EB30D200D20B202AD30B202A27
:1004480083120313FB08031D2A2A182C012C4B2A9C
:100458000230D2005208F200F0010314F00DF31438
:100468007314562AF2010314F20D0715F3147314CA
:10047800562A0310003003180130F2000711031048
:10048800003003180130F800F3147314562A7B085F
:10049800013A03192C2A073A0319362A0E3A031986
:1004A8003D2A562A182C7B08083A031D5C2A5D2A27
:1004B8006A2A0310003003180130F20007110310F4
:1004C800003003180130F800F3147314182C4E3060
:1004D800D300EB30D200D20B6F2AD30B6F2AF52A48
:1004E8000130F0020130700203187B2A7C2A7F2A2F
:1004F800F0010314F00DF3147314052B0130D2002E
:100508005208F00705307002031C8B2A8C2A902AA7
:100518000430D2005208F000F3147314052BDE2ABD
:100528000330D2005208F2008B13FC010314FC0DB7
:10053800F314F0010314F00D7314EC2A0430D20004
:100548005208F200F1010314F10D031000300318F2
:100558000130FA000310003003180130F400F314DE
:100568007314EC2A0530D2005208F200F10103148A
:10057800F10D0310003003180130FA0003100030A9
:1005880003180130F400F3147314EC2A0630D20077
:100598005208F200F1010314F10D031000300318A2
:1005A8000130FA000310003003180130F400F3148E
:1005B8007314EC2A7008013A0319942A033A0319B0
:1005C800A22A013A0319B62A073A0319CA2AEC2AB9
:1005D800052B0310003003180130F200F3147314D4
:1005E800052B831203137B08033A0319742A073A6D
:1005F8000319932A013A0319822A0D3A0319ED2A9D
:10060800052B182C4E30D300EB30D200D20B0A2B1E
:10061800D30B0A2BB42B0130FC0201307C020318E7
:10062800162B172B1A2BFC010314FC0DF31473144F
:10063800C72B0130D2005208FC0705307C02031C8E
:10064800262B272B2B2B0430D2005208FC00F31446
:100658007314C72B5F2B0130D2005208F9070D30F5
:100668007902031C382B392B3C2BF9010314F90DA3
:100678006D2B0130D2005208D0073C305002031CC9
:10068800462B472B4C2B0310003003180130D000A9
:100698006D2B0130D2005208D1073C305102031CA7
:1006A800562B572B5C2B0310003003180130D10058
:1006B8006D2BFD156D2B7C08013A03192F2B033A7E
:1006C80003193D2B013A03194D2B073A03195D2BEA
:1006D8006D2BF3147314C72B982B0130F9020130DA
:1006E80079020318782B792B7D2B0C30D200520815
:1006F800F900A62B0130D002D008031D842B852BCE
:10070800892B3B30D2005208D000A62B0130D102F1
:10071800D108031D902B912B952B3B30D20052080A
:10072800D100A62BFD11A62B7C08013A0319712BC9
:10073800033A03197E2B013A03198A2B073A031946
:10074800962BA62BF3147314C72B0230D200520831
:10075800F200F0010314F00DF3148B177314C72B78
:10076800831203137B08023A03192E2B013A03194B
:100778000F2B063A03191D2B023A0319702B0F3A57
:100788000319A92BC72B182C4E30D300EB30D200FD
:10079800D20BCC2BD30BCC2B831203137B08D600A4
:1007A80001300A128A1530230A128A11182C4E3089
:1007B800D300EB30D200D20BDF2BD30BDF2B83120D
:1007C80003137B08D60002300A128A1530230A1256
:1007D8008A11182C4E30D300EB30D200D20BF22BFA
:1007E800D30BF22B831203137B08D60003300A12B3
:1007F8008A1530230A128A11182C7208003A031934
:100808002B2A013A0319572A033A03196B2A013A8A
:100818000319062B073A0319C82B013A0319DB2BD6
:10082800033A0319EE2B182C83120313F808031D3F
:100838001E2C2A2C760877020318232C242C2A2C09
:1008480007110310003003180130F800731C2D2C19
:100858002E2C362C0A128A11DF260A128A118312CC
:1008680003137310F31C392C3A2C0B2E0A128A111D
:10087800E2270A128A1100300A128A1516210A1272
:100888008A11EF2D8030E0000030E1000A128A154D
:1008980035210A128A11812C0F30E0000030E10066
:1008A8000A128A1535210A128A11912C04300A126B
:1008B8008A150A210A128A1131300A128A150A2168
:1008C8000A128A11912C04300A128A150A210A1276
:1008D8008A1132300A128A150A210A128A11912CB9
:1008E80004300A128A150A210A128A1133300A12B0
:1008F8008A150A210A128A11912C83120313780887
:10090800003A0319502C013A03195A2C033A0319D7
:10091800672C013A0319742C912C83120313DC0100
:100928000314DC0D0030FD190130D2005208DB0041
:100938005108D3005308DA005008D90079080A1280
:100948008A1525220A128A11082E0130E00000308B
:10095800E1000A128A1535210A128A1140300A125A
:100968008A1516210A128A11123083120313E00025
:100978000030E1000A128A1535210A128A11082E60
:100988007D2D2330E0000030E1000A128A15352160
:100998000A128A1101300A128A150A210A128A11CA
:1009A80083120313F31CD92CDA2CEF2CDC0103146B
:1009B800DC0D0030FD190130D2005208DB0051086F
:1009C800D3005308DA005008D90079080A128A15AA
:1009D80025220A128A118B2D00300A128A150A2143
:1009E8000A128A11713083120313E0000030E1000B
:1009F8000A128A1535210A128A1101300A128A153B
:100A08000A210A128A11831203134D08D2005208D0
:100A1800DC0000307D180130D3005308DB000310E0
:100A2800003003180130DA004008D90041080A12E2
:100A38008A1525220A128A118B2D00300A128A156E
:100A48000A210A128A11533083120313E00000307E
:100A5800E1000A128A1535210A128A1101300A1298
:100A68008A150A210A128A11831203134C08D2002C
:100A78005208DC000030FD180130D3005308DB00B9
:100A88000310003003180130DA004408D900420886
:100A98000A128A1525220A128A118B2D00300A1291
:100AA8008A150A210A128A11433083120313E000BF
:100AB8000030E1000A128A1535210A128A118312C0
:100AC80003134508D2005208DC0000307D190130BC
:100AD800D3005308DB000310003003180130DA009C
:100AE8004E08D90043080A128A1525220A128A11CB
:100AF8008B2D7008013A0319C52C033A0319F02C01
:100B0800013A0319212D073A0319522D8B2D082E6E
:100B18003330E0000030E1000A128A1535210A124C
:100B28008A1183120313DC010314DC0D0030FD1954
:100B38000130D2005208DB005108D3005308DA0014
:100B48005008D90079080A128A1525220A128A1132
:100B5800C92D43300A128A1516210A128A11D92D75
:100B680046300A128A1516210A128A11D92D4930DF
:100B78000A128A1516210A128A11D92D4C300A1226
:100B88008A1516210A128A11D92D831203137C089B
:100B9800013A0319AD2D033A0319B42D013A03198B
:100BA800BB2D073A0319C22DD92D082E01300A1280
:100BB8008A15FC240A128A11082E02300A128A1594
:100BC800FC240A128A11082E03300A128A15FC2402
:100BD8000A128A11082E831203137208003A0319A5
:100BE800462C013A0319A92C033A0319C42C013ADB
:100BF80003198C2D073A0319DA2D013A0319E12D4F
:100C0800033A0319E82D082E83120313F310D12891
:100C18000A128A111228823486348E349E348E3415
:100C280086348234803488348C348E348F348E34D5
:100C38008C34883480348034843484348E348E34D4
:100C48009F349F34803480349F349F348E348E3464
:100C5800843484348034803484348E348E348E34B6
:100C68009F34843480348E349F3497349734973447
:100C7800973497349F340310003003180130E5008F
:100C8800E31F472E482E502EE209E309E20A031912
:100C9800E30AE5010314E50DE11F532E542E5D2EE2
:100CA800E009E109E00A0319E10A0130E8006808EF
:100CB800E5060030E6000030E70063086204031927
:100CC800662E672EA22EE4010314E40D762E013061
:100CD8000310E20DE30DFF3E031D6C2E0130E8000A
:100CE8006808E407E31F792E7A2E6B2E0130031073
:100CF800E60DE70DFF3E031D7B2E63086102031D11
:100D0800872E62086002031C8A2E8B2E952E62089D
:100D1800E0026308031CE103E1020130E60400304D
:100D2800E70401300310E30CE20CFF3E031D962E8E
:100D38000130E402031DA12EA22E7A2EE508031D20
:100D4800A62EAB2EE609E709E60A0319E70A6608A4
:100D5800E001E0076708E101E107B22E0800831609
:100D680003138C1CB82EB92ED32E831203138C1C9C
:100D7800BE2EBF2ED32E0130E9006908F50775088D
:100D8800193A031DC82EC92ED22E0310003003189D
:100D98000130F5000130E9006908CF078C10831293
:100DA8006D08FE006C088A006B0884006A088300DE
:100DB800FF0E7F0E0900F430D600EB2E1030D7005E
:100DC800D70BE42E64008312031301308706013029
:100DD800D6025608FF3A031DF22EF32EE22E080023
:100DE800831203130914A630E500E50BF92E6400FD
:100DF8008312031309100800FE00FE1F082F831337
:100E08007E188317000808000408FE0007308A00CF
:100E18007E088207003420342034203420345334B0
:100E280045344334553454345234493458342034D6
:100E38002034203420340034203420344D344134DC
:100E48004E34553441344C3420344D344F344434CA
:100E580045342134203420340034203420342034E4
:100E68005334453454342034543449344D3445349F
:100E78003F342034203420340034203420342034CB
:100E88005334453454342034543449344D3445347F
:100E98003A3420342034203400342034203453347D
:100EA80045345434203441344C34413452344D3474
:100EB80033343F3420342034003420342034533445
:100EC80045345434203441344C34413452344D3454
:100ED80032343F34203400342034533445345434CD
:100EE80020344434553452344134543449344F3422
:100EF8004E343A3400342034203453344534543496
:100F0800203441344C34413452344D3431343F343C
:100F180020340034203420342034203453344534F1
:100F280043345534543452344934583420342034FA
:100F3800003420342034203453344534543420349D
:100F480041344C34413452344D343A3400342D3425
:100F58002D343A342D342D343A342D342D34203474
:100F68002D342D3400342034203420344F344E3482
:100F7800203441344C34413452344D34003420341C
:100F88004D3469346E347334003433343F34203490
:100F980020342034003432343F3420342034203498
:100FA800003431343F342034203420340034593470
:100FB8004534533400344E344F3400348312031311
:100FC800091101300A128A1523210A128A11831283
:100FD80003130330DA009730D900D90BF12FDA0B5D
:060FE800F12FF62F0800B6
:1012140083120313E0000915600883130A128A1568
:1012240023210A128A15080083120313E00009110E
:1012340060088313803E0A128A1523210A128A1534
:10124400080083120313E3001730E400E40B282999
:10125400831203136308831386000A128A11F42687
:101264000A128A15080009154D29600884006108CE
:101274000A128A1100270A128A150A128A152321D2
:101284000A128A15013083120313E0070318E10AD6
:10129400E200E21BE1036008840061080A128A117B
:1012A40000270A128A150038031D59295A2937299B
:1012B40008000310003003180130E400E11F632923
:1012C40064296C29E009E109E00A0319E10AE4014F
:1012D4000314E40DE31F6F2970297529E209E3095A
:1012E400E20A0319E30A6308620403197A297B29D1
:1012F400AB29E5010314E50D8A2901300310E20D41
:10130400E30DFF3E031D80290130E6006608E50772
:10131400E31F8D298E297F2963086102031D942907
:1013240062086002031C972998299E296208E0023A
:101334006308031CE103E10201300310E30CE20C37
:10134400FF3E031D9F290130E502031DAA29AB2995
:101354008E29E408031DAF29B429E009E109E00A54
:101364000319E10AB52908000630831603139F0008
:101374000D309C00033083120313D6000310831630
:1013840003130030031801308900031000300318E0
:1013940001308600831203130911091089102730C4
:1013A400D800F530D700D70BD529D80BD529033071
:1013B4008312031386000A128A11F4260A128A156C
:1013C400831203130730D8007D30D700D70BE829E8
:1013D400D80BE8290A128A11F4260A128A158312F4
:1013E40003134230D700D70BF52964000A128A117F
:1013F400F4260A128A15831203134230D700D70B3E
:10140400012A640038308312031386000A128A11F9
:10141400F4260A128A1538300A128A1523210A1270
:101424008A150D300A128A1523210A128A150A1206
:101434008A11E2270A128A1506300A128A15232114
:101444000A128A150800DD0040300A128A15162196
:101454000A128A150F3083120313E0000030E100F2
:101464000A128A1535210A128A1583120313DC081D
:10147400031D3D2A1B2B0A30E2000030E3005D0807
:101484008313DE00DF015E08E0005F08E1000A125A
:101494008A113F260A128A15831203136108600415
:1014A4000319552A562A5D2A31300A128A150A214F
:1014B4000A128A15632A30300A128A150A210A127E
:1014C4008A150A3083120313E2000030E3005D083A
:1014D4008313DE00DF015E08E0005F08E1000A120A
:1014E4008A155B210A128A15831203136008303EA1
:1014F4000A128A150A210A128A153A300A128A1522
:101504000A210A128A150A3083120313E2000030FA
:10151400E30059088313DE00DF015E08E0005F0882
:10152400E1000A128A113F260A128A158312031354
:101534006008303E0A128A150A210A128A150A30F6
:1015440083120313E2000030E30059088313DE0022
:10155400DF015E08E0005F08E1000A128A155B21E2
:101564000A128A15831203136008303E0A128A1580
:101574000A210A128A153A300A128A150A210A1215
:101584008A150A3083120313E2000030E3005A087C
:101594008313DE00DF015E08E0005F08E1000A1249
:1015A4008A113F260A128A15831203136008303EFB
:1015B4000A128A150A210A128A150A3083120313A1
:1015C400E2000030E3005A088313DE00DF015E0806
:1015D400E0005F08E1000A128A155B210A128A15ED
:1015E400831203136008303E0A128A150A210A1274
:1015F4008A1520300A128A150A210A128A158312C2
:101604000313DB08031D072B0E2B50300A128A1517
:101614000A210A128A15142B41300A128A150A214A
:101624000A128A154D300A128A150A210A128A15DD
:10163400242B9D30E0000030E1000A128A15352188
:101644000A128A150D3083120313E0000030E10002
:101654000A128A1535210A128A150800D700592B57
:101664004108DA004008DC004D08D90000307D183C
:101674000130D8004808DB00652B4208DA00440832
:10168400DC004C08D9000030FD180130D8004608B1
:10169400DB00652B4308DA004E08DC004508D9005E
:1016A40000307D190130D8004A08DB00652B57084B
:1016B4008313013A0319322B033A03193F2B013ADE
:1016C40003194C2B652B932CBC2B0130F1020130F8
:1016D400710203186E2B6F2B722BF1010314F10DA1
:1016E400F3147314C72B9E2B0130DD005D08DA0759
:1016F4000D305A02031C7F2B802B832BDA01031439
:10170400DA0DF3147314A92B0130DD005D08DC0736
:101714003C305C02031C8F2B902B952B0310003064
:1017240003180130DC00F3147314A92BD80103143B
:10173400D80DF3147314A92B7A08013A0319762BE4
:10174400033A0319862B013A0319982BA92BC72BAB
:101754000130DD005D08DB07B5305B02031CB32BF1
:10176400B42BB92B0310003003180130DB00F31441
:101774007314C72B7408003A0319672B013A031931
:10178400752B033A0319AA2BC72BA72C142C013051
:10179400DD005D08F10704307102031CD22BD32B4A
:1017A400D72B0330DD005D08F100F31473141F2CF4
:1017B400FC2B0130DA0201305A020318E22BE32B2E
:1017C400E52B0C30DA00F3147314072C0130DC021F
:1017D400DC08031DEE2BEF2BF12B3B30DC00F31464
:1017E4007314072C0310003003180130D800F314CD
:1017F4007314072C7A08013A0319DB2B033A0319F3
:10180400E82B013A0319F42B072C1F2C0130DB02BF
:10181400DB08031D0E2C0F2C112CB430DB00F31449
:1018240073141F2C7408003A0319C92B013A0319C5
:10183400DA2B033A0319082C1F2CA72C7408013A3D
:10184400031D252C262C332C0130FA0201307A0298
:1018540003182D2C2E2C312CFA010314FA0DF31439
:101864007314A72C7408013A031D392C3A2C4A2C02
:101874000130DD005D08FA0704307A02031C432CB2
:10188400442C482C0330DD005D08FA00F314731473
:10189400A72CF408031D4F2C552C031000300318FB
:1018A4000130F400602C0230DD005D08F2005708BE
:1018B400013EDD005D08F000F3147314A72C872C9F
:1018C4000310003003180130F400D908031D6B2CF9
:1018D400712C0310003003180130D900742CD90185
:1018E4000314D90DF3147314922CF4010314F40D9E
:1018F400FA010314FA0DF3147314922C0230DD0070
:101904005D08F400F3147314922C7108013A03195E
:10191400622C033A0319772C013A0319802C922C78
:10192400A72C5608023A0319662B013A0319202CF6
:10193400073A0319612C013A0319342C023A0319AA
:10194400C82B0F3A03194B2CA72CF02C5A08DD0096
:101954005D08C1005C08DD005D08C0005908DD00B9
:101964005D08CD007D10581CB82C7D145B08DD008B
:10197400DE015D08C8005E08C900FB2C5A08DD00C2
:101984005D08C2005C08DD005D08C4005908DD0084
:101994005D08CC00FD10581CD02CFD145B08DD0044
:1019A400DE015D08C6005E08C700FB2C5A08DD0096
:1019B4005D08C3005C08DD005D08CE005908DD0049
:1019C4005D08C5007D11581CE82C7D155B08DD0001
:1019D400DE015D08CA005E08CB00FB2C5708013A03
:1019E4000319A82C033A0319C02C013A0319D82C63
:1019F400FB2C0800D600F42FA930E0000030E100F1
:101A04000A128A1535210A128A15832DC730E0007F
:101A14000030E1000A128A1535210A128A1547306E
:101A24000A128A1516210A128A1583120313CD0885
:101A3400031D1D2D272DCD30E0000030E1000A12DA
:101A44008A1535210A128A15302DD130E000003074
:101A5400E1000A128A1535210A128A15912DC13026
:101A6400E0000030E1000A128A1535210A128A15B5
:101A740047300A128A1516210A128A158312031393
:101A8400CC08031D462D502DCD30E0000030E10080
:101A94000A128A1535210A128A15592DD130E0000F
:101AA4000030E1000A128A1535210A128A15912D97
:101AB400BB30E0000030E1000A128A1535210A1219
:101AC4008A1547300A128A1516210A128A158312BA
:101AD4000313C508031D6F2D792DCD30E0000030B0
:101AE400E1000A128A1535210A128A15822DD13095
:101AF400E0000030E1000A128A1535210A128A1525
:101B0400912D8312031356088313013A0319082DE8
:101B1400033A0319312D013A03195A2D912D4F30EF
:101B24000A128A1516210A128A1503300A128A1516
:101B34000A210A128A1547300A128A1516210A1236
:101B44008A15FF2F8F30E0000030E1000A128A1559
:101B540035210A128A150F300A128A1516210A1223
:101B64008A1502300A128A150A210A128A15022ECF
:101B74004D08D7005708DC0000307D180130D8002C
:101B84005808DB000310003003180130DA00400865
:101B9400D90041080A128A1525220A128A15102E24
:101BA4004C08D7005708DC000030FD180130D8007D
:101BB4005808DB000310003003180130DA00440831
:101BC400D90042080A128A1525220A128A15102EF3
:101BD4004508D7005708DC0000307D190130D800D3
:101BE4005808DB000310003003180130DA004E08F7
:101BF400D90043080A128A1525220A128A15102EC2
:101C04008312031356088313013A0319BA2D033AB6
:101C14000319D22D013A0319EA2D102E4F300A125E
:101C24008A1516210A128A1503300A128A150A2106
:101C34000A128A15392E50300A128A1516210A12F0
:101C44008A15492E43300A128A1516210A128A155A
:101C5400492E46300A128A1516210A128A15492E6F
:101C64004C300A128A1516210A128A15492E83123B
:101C740003137A08003A03191D2E013A0319242E7E
:101C8400033A03192B2E013A0319322E492EFF2F42
:101C94006230E0000030E1000A128A1535210A1290
:101CA4008A150F300A128A1516210A128A15023073
:101CB4000A128A150A210A128A1544300A128A1550
:101CC40016210A128A15C52F6430E2000030E300A1
:101CD4004808E001E0074908E101E1070A128A1116
:101CE4003F260A128A15831203136008303E0A1233
:101CF4008A150A210A128A15831203134908803AA5
:101D0400D70080305702031D892E64304802031C1B
:101D14008C2E8D2EA82E0A30E2000030E3004808F5
:101D24009C3EE00049080318013EFF3EE1000A1210
:101D34008A113F260A128A15831203136008303E63
:101D44000A128A150A210A128A15C02E0A30E200E4
:101D54000030E3004808E001E0074908E101E10739
:101D64000A128A113F260A128A1583120313600885
:101D7400303E0A128A150A210A128A150A30831281
:101D84000313E2000030E3004808E001E0074908DB
:101D9400E101E1070A128A155B210A128A158312EE
:101DA40003136008303E0A128A150A210A128A15A2
:101DB400D32F6430E2000030E3004608E001E0077E
:101DC4004708E101E1070A128A113F260A128A151F
:101DD400831203136008303E0A128A150A210A127C
:101DE4008A15831203134708803AD70080305702BC
:101DF400031DFE2E64304602031C012F022F1D2FEB
:101E04000A30E2000030E30046089C3EE000470848
:101E14000318013EFF3EE1000A128A113F260A120E
:101E24008A15831203136008303E0A128A150A21A8
:101E34000A128A15352F0A30E2000030E300460802
:101E4400E001E0074708E101E1070A128A113F2691
:101E54000A128A15831203136008303E0A128A1587
:101E64000A210A128A150A3083120313E200003091
:101E7400E3004608E001E0074708E101E1070A1230
:101E84008A155B210A128A15831203136008303EF7
:101E94000A128A150A210A128A15D32F6430E20025
:101EA4000030E3004A08E001E0074B08E101E107E4
:101EB4000A128A113F260A128A1583120313600834
:101EC400303E0A128A150A210A128A158312031354
:101ED4004B08803AD70080305702031D732F6430BB
:101EE4004A02031C762F772F922F0A30E20000302B
:101EF400E3004A089C3EE0004B080318013EFF3E05
:101F0400E1000A128A113F260A128A15831203136A
:101F14006008303E0A128A150A210A128A15AA2F6D
:101F24000A30E2000030E3004A08E001E0074B0811
:101F3400E101E1070A128A113F260A128A15831267
:101F440003136008303E0A128A150A210A128A1500
:101F54000A3083120313E2000030E3004A08E00170
:101F6400E0074B08E101E1070A128A155B210A1216
:101F74008A15831203136008303E0A128A150A2157
:101F84000A128A15D32F8312031356088313013AB6
:101F94000319662E033A0319DB2E013A0319502F55
:101FA400D32FB53083120313E0000030E1000A128E
:101FB4008A1535210A128A15831203137408023A0A
:101FC400031DE52FE62FED2F44300A128A15162142
:101FD4000A128A15F32F50300A128A1516210A1292
:101FE4008A15FF2F7108013A0319FE2C033A0319CD
:0C1FF400A42D013A03194A2EFF2F08000B
:02400E00391F58
:00000001FF
